:100000000C945D000C9485000C9485000C94850084
:100010000C9485000C9485000C9485000C9485004C
:100020000C94B9090C9485000C9485000C948500FF
:100030000C9485000C9485000C9485000C9485002C
:100040000C9417090C9485000C9487090C94610991
:100050000C9485000C9485000C9485000C9485000C
:100060000C9485000C9485000000000025002800F9
:100070002B0000000008000201000003040700003C
:1000800000000000000000000000230026002900FE
:10009000040404040404040402020202020203032E
:1000A0000303030301020408102040800102040836
:1000B00010200102040810206C0A11241FBECFEF8B
:1000C000D8E0DEBFCDBF25E0A8E7B3E001C01D92B8
:1000D000A53DB207E1F713E0A0E0B1E0E4EFF3E201
:1000E00002C005900D92A837B107D9F710E0CDE511
:1000F000D0E004C02197FE010E94E611CC35D10763
:10010000C9F70E94BD0A0C94F8110C940000A2EAF1
:10011000B4E011968C93119790E0FC01EC55FF4FE1
:10012000E4911496EC931497FC01E057FF4FE4918F
:10013000F0E0EE0FFF1FEA57FF4F85919491139661
:100140009C938E93129708950F931F93CF93DF93F1
:10015000E091C805F091C9054091F703808510E052
:10016000481708F064C0142F11700091F6030111B4
:100170004FC0842F90E0880F991FE80FF91F01846A
:10018000F285E02D2CEE3FEF112311F024E130E059
:10019000C091F403D091F5032C0F3D1FC90163E416
:1001A00070E00E94BE11E617F70760F0C90168E22F
:1001B00070E00E94BE116F5F7F4F81E090E06E178C
:1001C0007F0710F52C0F3D1FC90163E470E00E940A
:1001D000BE11E617F70750F0C90168E270E00E940F
:1001E000BE116F5F7F4F6E177F0760F42C0F3D1FAE
:1001F000C90163E470E00E94BE11E617F707E8F456
:100200001FEF15C082E090E09093F3038093F20318
:100210000F5F0093F6038091F2039091F3030817A8
:10022000190628F01092F6034F5F4093F703812FD1
:10023000DF91CF911F910F910895C90168E270E09D
:100240000E94BE116F5F7F4F6E177F07C8F283E079
:1002500090E0DACFE5EBF3E0DC012D913D914C919C
:10026000219331934193B3E0E23EFB07A9F7089550
:1002700020E0DC0160FF03C001C02D932D9362508C
:10028000E0F77040D0F70895CF93DF93C091EC036F
:10029000D091ED03209789F08A819B81009749F0E6
:1002A0002D853E85B901660F771F620F731F0E946F
:1002B00038010C80DD81C02DEDCFDF91CF91089505
:1002C00090E0FC01EE58FF4F2491FC01EC55FF4FEC
:1002D0003491FC01E057FF4FE491EE23C9F0222353
:1002E00039F0233001F1A8F4213019F1223029F13D
:1002F000F0E0EE0FFF1FE859FF4FA591B4918FB7C3
:10030000F894EC91611126C030953E233C938FBF49
:1003100008952730A9F02830C9F0243049F780919A
:1003200080008F7D03C0809180008F778093800054
:10033000DFCF84B58F7784BDDBCF84B58F7DFBCFD6
:100340008091B0008F778093B000D2CF8091B000C1
:100350008F7DF9CF3E2BDACF3FB7F8948091B10370
:100360009091B203A091B303B091B40326B5A89BBA
:1003700005C02F3F19F00196A11DB11D3FBFBA2F37
:10038000A92F982F8827BC01CD01620F711D811DF7
:10039000911D42E0660F771F881F991F4A95D1F77C
:1003A00008954F925F926F927F929F92AF92BF9209
:1003B000CF92DF92EF92FF920F931F93CF93DF9331
:1003C00000D01F92CDB7DEB7D090950480919804ED
:1003D00090919904A0919A04B0919B04892B8A2B47
:1003E0008B2BD9F00E94AC010091EE031091EF032A
:1003F0002091F0033091F103601B710B820B930B82
:10040000009198041091990420919A0430919B04D2
:100410006017710782079307C8F20E94AC016093CE
:10042000EE037093EF038093F0039093F103E09158
:10043000A004F091A104309759F040919C04509190
:100440009D0460919E0470919F048D2D0995D82E76
:10045000E090EC03F090ED034D2C512C712C612CAD
:10046000E114F10409F459C0D7011C96CC901C97F3
:1004700080919604909197048436910510F41C960F
:100480001C92D701ED91FC91A280B38019821A824F
:100490001B82DD2079F1F701369610E000E0219112
:1004A000222319F19280992001F130E050E040E0E0
:1004B0002F5F3F4F4F4F5F4FC301B2010E94721138
:1004C0009B01AC01892D90E0B0E0A0E0BC01CD0122
:1004D0006F5F7F4F8F4F9F4F0E947211A1E0B0E07E
:1004E000AC0FBD1FA00FB11F8C930F5F1F4F0330C8
:1004F0001105A9F609811A812B81F70145855685D9
:1005000062817381C701F5010995D7011C96CC92D0
:100510001C971496ED90FC90A3CF8091EA039091E4
:10052000EB039C012F5F3F4F3093EB032093EA03D3
:1005300049970CF44AC08FB7F8942091E2033091A8
:10054000E3034091E4035091E5038FBF8091E603FC
:100550009091E703A091E803B091E903281B390BC0
:100560004A0B5B0B21F421E030E040E050E0E091E9
:10057000EA03F091EB0388EE93E0E89FB001E99F76
:10058000700DF89F700D1124072E000C880B990B2D
:100590000E94821130939704209396041092EB03EB
:1005A0001092EA032FB7F8948091E2039091E3034D
:1005B000A091E403B091E5032FBF8093E6039093ED
:1005C000E703A093E803B093E9030F900F900F9017
:1005D000DF91CF911F910F91FF90EF90DF90CF901F
:1005E000BF90AF909F907F906F905F904F900895D5
:1005F0008F929F92AF92BF92CF92DF92EF92FF9233
:100600000E94AC014B015C0188ECC82ED12CE12C7E
:10061000F12C0E94AC01681979098A099B09683E8E
:10062000734081059105A8F321E0C21AD108E108C1
:10063000F10888EE880E83E0981EA11CB11CC1143D
:10064000D104E104F10429F7FF90EF90DF90CF90FF
:10065000BF90AF909F908F90089580E991E00895AA
:10066000AF92BF92CF92DF92EF92FF920F931F93C0
:10067000CF93DF936C017B018B01040F151FEB01FE
:100680005E01AE18BF08C017D10759F06991D601B5
:10069000ED91FC910190F081E02DC6010995892B27
:1006A00079F7C501DF91CF911F910F91FF90EF90E6
:1006B000DF90CF90BF90AF900895FC01538D448D93
:1006C000252F30E0842F90E0821B930B541710F0FD
:1006D000CF96089501970895FC01918D828D98170A
:1006E00061F0A28DAE0FBF2FB11D5D968C91928DE2
:1006F0009F5F9F73928F90E008958FEF9FEF089513
:10070000FC01918D828D981731F0828DE80FF11DDB
:10071000858D90E008958FEF9FEF0895FC01918DF6
:10072000228D892F90E0805C9F4F821B91098F73EF
:100730009927089588EF93E00E948E0321E0892B8A
:1007400009F420E0822F089580E090E0892B29F0C1
:100750000E949A0381110C9400000895FC01A48D5D
:10076000A80FB92FB11DA35ABF4F2C91848D90E0D3
:1007700001968F739927848FA689B7892C93A089B6
:10078000B1898C91837080648C93938D848D981340
:1007900006C00288F389E02D80818F7D80830895D3
:1007A000EF92FF920F931F93CF93DF93EC0181E0C1
:1007B000888F9B8D8C8D98131AC0E889F989808168
:1007C00085FF15C09FB7F894EE89FF896083E8899B
:1007D000F98980818370806480839FBF81E090E08D
:1007E000DF91CF911F910F91FF90EF900895F62E1A
:1007F0000B8D10E00F5F1F4F0F731127E02E8C8DB4
:100800008E110CC00FB607FCFACFE889F9898081F8
:1008100085FFF5CFCE010E94AE03F1CFEB8DEC0F3B
:10082000FD2FF11DE35AFF4FF0829FB7F8940B8F15
:10083000EA89FB8980818062CFCFCF93DF93EC017F
:10084000888D8823B9F0AA89BB89E889F9898C91B8
:1008500085FD03C0808186FD0DC00FB607FCF7CF74
:100860008C9185FFF2CF808185FFEDCFCE010E9474
:10087000AE03E9CFDF91CF9108950F931F93CF93EC
:10088000DF93209179032F5F322F377030937903F4
:1008900020FF2BC020E831FD2064347009F0206275
:1008A000205FFC01EC01239600E011E064856623E3
:1008B00029F070E0C8010E94D2116F5F6187322F6A
:1008C000369F030E30E0311D1124311110C0168205
:1008D000662311F0615061873196EC17FD0731F7FF
:1008E000DF91CF911F910F91089520E0D4CF315027
:1008F0003683EECF4F925F926F927F928F929F924C
:10090000AF92CF92DF92EF92FF920F931F93CF930C
:10091000DF933C01EB010E94AC01F3012785308994
:10092000621B730B6A307105B0F3F894E881F981AA
:100930000BB100621BB11F7D1BB9CA848F814C2D86
:10094000481B842F4F839F844A805B80FD84EC8406
:10095000DE84F394E394D3949E8138858984AB84B8
:100960004181D20120E0622F722F71814427889447
:100970007111780F08F47FEF81958894F0FC470F90
:1009800047958894F1FC470F47958894F2FC470FF0
:1009900047958894F3FC470F47958894F4FC470FDC
:1009A00047958894F5FC470F47958894F6FC470FC8
:1009B00047958894F7FC470F47958894272FF110A7
:1009C000242F8C0D422F002C0BB900C047FF1BB900
:1009D00070812227889400C000C0002C1BB97111BF
:1009E000790F00C0002C0BB900C046FF1BB908F4FA
:1009F0007FEF9195889400C000C0002C1BB9E0FCEB
:100A0000270F00C0002C0BB900C045FF1BB927956C
:100A10008894E1FC270F00C000C0002C1BB927956B
:100A2000889400C0002C0BB900C044FF1BB9E2FC45
:100A3000270F2795889400C000C0002C1BB9E3FC49
:100A4000270F00C0002C0BB900C043FF1BB927952E
:100A50008894E4FC270F00C000C0002C1BB9279528
:100A6000889400C0002C0BB900C042FF1BB9E5FC04
:100A7000270F2795889400C000C0002C1BB9E6FC06
:100A8000270F00C0002C0BB900C041FF1BB92795F0
:100A90008894E7FC270F00C000C0002C1BB92795E5
:100AA000889400C0002C0BB900C040FF1BB9472F31
:100AB000E110422F980D00C000C0002C1BB900C0EF
:100AC00000C0002C0BB900C047FF1BB97281222760
:100AD000889400C000C0002C1BB97111730F00C0B6
:100AE000002C0BB900C046FF1BB908F47FEFE90DDD
:100AF000F11D00C000C0002C1BB9D0FC270F00C0A6
:100B0000002C0BB900C045FF1BB927958894D1FC78
:100B1000270F00C000C0002C1BB92795889400C087
:100B2000002C0BB900C044FF1BB9D2FC270F27953E
:100B3000889400C000C0002C1BB9D3FC270F00C054
:100B4000002C0BB900C043FF1BB927958894D4FC37
:100B5000270F00C000C0002C1BB92795889400C047
:100B6000002C0BB900C042FF1BB9D5FC270F2795FD
:100B7000889400C000C0002C1BB9D6FC270F00C011
:100B8000002C0BB900C041FF1BB927958894D7FCF6
:100B9000270F00C000C0002C1BB92795889400C007
:100BA000002C0BB900C040FF1BB9472FD110422FBA
:100BB000319500C000C0002C1BB93A0D00C000C028
:100BC0000BB900C047FF1BB971812227889400C070
:100BD00000C0002C1BB97111780F00C0002C0BB99C
:100BE00000C046FF1BB908F47FEF8195889400C0D0
:100BF00000C0002C1BB9F0FC270F00C0002C0BB963
:100C000000C045FF1BB927958894F1FC270F00C051
:100C100000C0002C1BB92795889400C0002C0BB98C
:100C200000C044FF1BB9F2FC270F2795889400C031
:100C300000C0002C1BB9F3FC270F00C0002C0BB91F
:100C400000C043FF1BB927958894F4FC270F00C010
:100C500000C0002C1BB92795889400C0002C0BB94C
:100C600000C042FF1BB9F5FC270F2795889400C0F0
:100C700000C0002C1BB9F6FC270F00C0002C0BB9DC
:100C800000C041FF1BB927958894F7FC270F00C0CF
:100C900000C0002C1BB92795889400C0002C0BB90C
:100CA00000C040FF1BB9472FF110422F8C0D00C030
:100CB00000C0002C1BB9119709F086CE20EE31E060
:100CC000D2010E94EC11DC01CB01F4E0B695A795AE
:100CD00097958795FA95D1F730E020E0B901EAE9D8
:100CE0004E9E040C611D5E9E600D711D1124650DEC
:100CF000711D860F971FA11DB11D893EE3E09E0760
:100D0000A105B10508F434C0885E9340A109B1097A
:100D100042E0B695A795979587954A95D1F747E014
:100D2000849F080E211D949F200D311D1124290F31
:100D3000311D6091780370E0860F971F820F931F1B
:100D40004091E2035091E3036091E4037091E50365
:100D5000292F3327420F531F611D711D4093E2035A
:100D60005093E3036093E4037093E5038093780367
:100D700078940E94AC01F301708B6787DF91CF916B
:100D80001F910F91FF90EF90DF90CF90AF909F90C9
:100D90008F907F906F905F904F900895559A08952F
:100DA000EF92FF920F931F93CF93DF93CDB7DEB7F0
:100DB00062970FB6F894DEBF0FBECDBF7C01DC0199
:100DC0001C968C917A8369835C834B835E834D830D
:100DD0000D871E872F87813001F5CE0101960E9475
:100DE0003D0483E0888B1A8A198AD701ED91FC9122
:100DF0000484F585E02DBE016F5F7F4FC701099523
:100E000062960FB6F894DEBF0FBECDBFDF91CF91D3
:100E10001F910F91FF90EF9008951C861B861A86F4
:100E2000198618861F82DDCFEF92FF920F931F93D2
:100E3000CF93DF93CDB7DEB762970FB6F894DEBFDE
:100E40000FBECDBF7C01DC011C968C917A83698337
:100E50005C834B835E834D830D871E872F87813094
:100E6000F9F4CE0101960E943D04188A1A8A198A63
:100E7000D701ED91FC910484F585E02DBE016F5FF3
:100E80007F4FC701099562960FB6F894DEBF0FBE7B
:100E9000CDBFDF91CF911F910F91FF90EF900895FB
:100EA0001C861B861A86198618861F82DECF90E064
:100EB00080E00895FC018585968508950F931F9322
:100EC000CF93DF9300D01F92CDB7DEB7AB0119826D
:100ED0001A821B82DC01ED91FC910190F081E02DE2
:100EE00000E010E020E0BE016F5F7F4F09950F909A
:100EF0000F900F90DF91CF911F910F9108957F92E6
:100F00008F929F92AF92BF92CF92DF92EF92FF9219
:100F10000F931F93CF93DF93782EEA01E091C805DA
:100F2000F091C9053F968B010C5E1F4F43E4C42E20
:100F3000D12CC801B6010E94BE115B0158E2E52E1A
:100F4000F12CC801B7010E94BE118B010F5F1F4F2A
:100F50006497CE01B6010E94BE114B01CE01B701CC
:100F60000E94BE11EB01219624513109C901B6013D
:100F70000E94BE116B01C901B7010E94BE116F5FD3
:100F80007F4F20E030E0A901A0E0808191818A15A7
:100F90009B0570F10817190758F182819381881514
:100FA000990518F1C817D90728F1220F331F441FDC
:100FB000551F21603496AF5F7A12E7CF2093BC05AE
:100FC0003093BD054093BE055093BF0581E0DF918E
:100FD000CF911F910F91FF90EF90DF90CF90BF9036
:100FE000AF909F908F907F9008958C159D0510F481
:100FF00080E0EDCF68177907D8F3220F331F441F25
:10100000551FD8CFFC0101900020E9F73197AF01BF
:10101000481B590BBC0188EF93E00C9430038F926E
:101020009F92AF92BF920F931F93CF93DF93CDB751
:10103000DEB7A1970FB6F894DEBF0FBECDBF19A2E1
:10104000423008F44AE08E010F5D1F4F842E912C30
:10105000B12CA12CA50194010E948211E62FB901A7
:10106000CA01EA30F4F4E05DD801EE938D01232B40
:10107000242B252B79F790E080E0109719F0CD0113
:101080000E940208A1960FB6F894DEBF0FBECDBF36
:10109000DF91CF911F910F91BF90AF909F908F9054
:1010A0000895E95CE1CFCF93DF930E940208EC0141
:1010B00086E391E00E9402088C0F9D1FDF91CF9183
:1010C0000895CF93DF9300D01F92CDB7DEB7FC0118
:1010D0008091960390919703892B29F13197EF30F6
:1010E000F10598F4EA58F74F0C94E6119908A10815
:1010F000AA08B208BA08C208CA08D208DC08E5087B
:10110000EF08F908010908090F0989E391E00E9435
:1011100053088FEF89831A821B82CE0101960E94A9
:101120002A010E94D1010F900F900F90DF91CF9173
:1011300008958CE491E00E945308198280E88A8324
:10114000EBCF81E691E00E94530819821A828FEF5B
:101150008B83E3CF85E791E00E9453088FEF89836B
:101160008A83F6CF8AE891E00E9453088FEF898343
:101170008CE8E5CF85EA91E00E9453088FE78983E8
:101180008FEFDDCF8FEB91E00E94530819821A8216
:101190008BE8DECF88ED91E00E9453088FEF8983C2
:1011A00085EACDCF8EEE91E00E94530881E48983D9
:1011B00089E68A8381EECCCF88E092E00E945308D2
:1011C00084E989831A8283EDC3CF83E292E00E948F
:1011D00053088AED898385EA8A8380E2B9CF8DE35B
:1011E00092E00E94530880E2898382EB8A838AEA34
:1011F000AFCF8CE592E00E94530880E889831A8281
:10120000A7CF82E792E00E9453088FEF898397CFA0
:1012100088E892E00E945308198280E8A1CF8CE907
:1012200092E00E9453088FEFE9CF0E94F3111F92C2
:101230000F920FB60F9211242F933F938F939F938A
:10124000AF93BF938091E2039091E303A091E403F5
:10125000B091E5033091B00323E0230F2D3758F50B
:101260000196A11DB11D2093B0038093E2039093DA
:10127000E303A093E403B093E5038091B10390915D
:10128000B203A091B303B091B4030196A11DB11DA7
:101290008093B1039093B203A093B303B093B403CC
:1012A000BF91AF919F918F913F912F910F900FBE62
:1012B0000F901F90189526E8230F0296A11DB11DCF
:1012C000D2CF1F920F920FB60F9211242F933F93FC
:1012D0004F935F936F937F938F939F93AF93BF933E
:1012E000EF93FF9388EF93E00E94AE03FF91EF919D
:1012F000BF91AF919F918F917F916F915F914F912E
:101300003F912F910F900FBE0F901F9018951F9235
:101310000F920FB60F9211242F938F939F93EF93F9
:10132000FF93E0910804F09109048081E0910E049C
:10133000F0910F0482FD1BC09081809111048F5F9A
:101340008F7320911204821741F0E0911104F0E0B4
:10135000E850FC4F958F80931104FF91EF919F917E
:101360008F912F910F900FBE0F901F901895808135
:10137000F4CF1F920F920FB60F9211242F933F9329
:101380004F935F936F937F938F939F93AF93BF938D
:10139000EF93FF93E091A404F091A50490818091D4
:1013A000A60498232091A7043091A8042F3F320768
:1013B00031F02F5F3F4F3093A8042093A704809112
:1013C000A204811135C0911116C02091A70430915B
:1013D000A8042536310558F01092A9043093AC04C6
:1013E0002093AB0481E08093AA048093A20410921E
:1013F000A8041092A7048091B005813041F4809137
:10140000AF05911161C061E0811161C02D9AFF911A
:10141000EF91BF91AF919F918F917F916F915F916C
:101420004F913F912F910F900FBE0F901F901895E5
:101430008091A2048130A1F49923E9F2E091AA04F9
:101440008E0F8093AA04F0E0EE0FFF1FEE55FB4FC6
:101450002091A7043091A8043287218782E0C5CF6C
:101460008091A204823039F5911119C0E091AA044B
:1014700081E0E03720F08093A90483E0B6CF8E0F9F
:101480008093AA04F0E0EE0FFF1FEE55FB4F209172
:10149000A7043091A8043287218781E0A6CF20914C
:1014A000A7043091A8042536310508F4A4CF83E0C1
:1014B0008093A204A0CF8091A204833009F09BCF37
:1014C000992309F494CF97CF882321F060E00E94FC
:1014D00060019DCF2D989BCFCF93DF93E8EFF3E092
:1014E0001382128288EE93E0A0E0B0E084839583BB
:1014F000A683B78388E291E09183808385EC90E0B6
:101500009587848784EC90E09787868780EC90E0CD
:10151000918B808B81EC90E0938B828B82EC90E0BE
:10152000958B848B86EC90E0978B868B118E128E38
:10153000138E148EE5E9F4E08FEF8083128211821E
:10154000148613868FEF9FEFDC0187839087A18736
:10155000B287C2EAD4E0D093C905C093C80580E041
:101560000E9487001092AF05D093A305C093A205F7
:101570008BE0DF91CF910C948700789484B58260E2
:1015800084BD84B5816084BD85B5826085BD85B527
:10159000816085BD80916E00816080936E001092A5
:1015A0008100809181008260809381008091810020
:1015B00081608093810080918000816080938000B1
:1015C0008091B10084608093B1008091B00081600F
:1015D0008093B00080917A00846080937A0080913B
:1015E0007A00826080937A0080917A008160809393
:1015F0007A0080917A00806880937A001092C1000E
:10160000E0910804F091090482E08083E0910404F1
:10161000F09105041082E0910604F09107049FEC1C
:10162000908310921004E0910C04F0910D0496E068
:101630009083E0910A04F0910B0490819061908373
:10164000E0910A04F0910B04908198609083E091FE
:101650000A04F0910B04908190689083E0910A0451
:10166000F0910B0490819F7D90838093B0008093D4
:10167000B10084E68093B3008093B4001092B2006E
:101680008091A204833011F41092A20484E080932C
:10169000700080918D03811145C010927F031092DC
:1016A0007E038FEF80938203809383038093840370
:1016B00080938503809386038093870381E08093E2
:1016C000880310928A03109289031092810310926A
:1016D00080038091EC039091ED03892B31F48CE72A
:1016E00093E09093ED038093EC03E0917A03F09103
:1016F0007B03309721F08CE793E0958384838CE71C
:1017000093E090937B0380937A0310928C03109262
:101710008B0386E191E090937D0380937C0381E0CD
:1017200080938D03559A85EB93E090937F0380938C
:101730007E038FE090E090938A03809389038091E9
:10174000980490919904A0919A04B0919B04843CD0
:1017500029E09207A105B10520F484EC99E0A0E00E
:10176000B0E08093980490939904A0939A04B09366
:101770009B040E94F80280910001809395040E94CE
:1017800044010E94D101C0E12C2E312CCC24CA94FA
:10179000DC2C7601C0E8B2E18B2E912C8091A20462
:1017A000833009F00BC580919503811107C083EB4D
:1017B00092E00E94530881E0809395038BEA94E0C5
:1017C0009093AD038093AC032091AA042093AE03C1
:1017D0008091A904882321F01092A9041092AA04F0
:1017E0008091A9048093AF031092A4031092A503E3
:1017F0001092A6031092A703C093BB058091AD047D
:101800009091AE04865891098C35910590F424305E
:1018100009F0AAC08091AF049091B00481974897D5
:1018200040F48091B1049091B2040897089708F4AD
:10183000D9C08091AE038A3108F409C1E091AC03AC
:10184000F091AD03208131812A30310508F0DEC0EE
:101850001092A803C092A403D092A503E092A6031D
:10186000F092A70381E08093BB059092B20580922D
:10187000B1056091A4037091A5038091A603909196
:10188000A70360939C0370939D0380939E039093A2
:101890009F0340E10E940F0886E391E00E94020846
:1018A00080919C0390919D03A0919E03B0919F0312
:1018B0008F3F9F4FAF4FBF4F81F48091980390911E
:1018C0009903A0919A03B0919B0380939C039093FA
:1018D0009D03A0939E03B0939F0380919C039091DE
:1018E0009D03A0919E03B0919F038F3820E792073C
:1018F00027EFA207B10509F4EFC408F0FFC38F3C3E
:1019000020E3920727EFA207B10509F4DFC408F02E
:10191000CAC38F3E20E1920727EFA207B10509F461
:10192000CCC408F0AFC38F3F910527EFA207B105E4
:1019300009F46AC4873F9840A74FB10509F4CFC4A2
:1019400080E793E00E9453086091A4037091A5037F
:101950008091A6039091A70340E10E940F0886E3BF
:1019600091E00E94020814C4243409F062CF8091EF
:10197000AF049091B004825491098F9708F059CF29
:1019800020E332E040E956E060E372E080E20E944A
:101990007F07882309F44DCFE091AC03F091AD03AC
:1019A000EA57FF4F808191810897089708F041CF4F
:1019B0008091BC059091BD05A091BE05B091BF0579
:1019C0008093A4039093A503A093A603B093A703C9
:1019D00080E28093A80387E090E09093A103809336
:1019E000A0030FC01092A803C092A403D092A50335
:1019F000E092A603F092A70381E88093BB0587E0FD
:101A000090E09093B2058093B10533CF228133816A
:101A1000245231092A313105D0F443E050E060E02E
:101A2000412C512C320190E04817590708F055C05D
:101A300024813581285031092830310540F4268130
:101A400037812231310598F120323105D8F181E01A
:101A50008093F70389E793E09093F5038093F40371
:101A60001092F6030E94A400813009F0A2C0412C1C
:101A7000512C3201D0E0E091C805F091C905908564
:101A80008091F703891708F041C00E94A400182F25
:101A90000E94A400111130C0813009F08AC0440CAA
:101AA000551C661C771C689440F8DF5FE4CF293032
:101AB000310568F22131310550F6440C551C661C85
:101AC000771C06C0440C551C661C771C689440F8B3
:101AD0006F5F4E5F5F4F3496A7CF6093A80340922D
:101AE000A4035092A5036092A6037092A70390925C
:101AF000A1038092A003B9CE113009F05AC0811120
:101B000058C0440C551C661C771CCFCF8D2F90E01D
:101B10009093BA058093B9054092BC055092BD05DB
:101B20006092BE057092BF05842D8F7390E09093F4
:101B3000B6058093B505920146E0369527954A95FE
:101B4000E1F72F7133273093B4052093B305920149
:101B500022273071232B31F4805C9F4F9093B60580
:101B60008093B50553FC21C0C093BB058185928548
:101B70008F3C994028F48091BB0581608093BB0520
:101B80008EE090E09093B2058093B105D093A803C6
:101B90004092A4035092A5036092A6037092A703FB
:101BA0009093A1038093A00364CE88E88093BB0543
:101BB000DDCFE091C805F091C905838594858897AC
:101BC0004D9708F046C0858596850C970B9708F0D1
:101BD00040C083E08093F7038CEB91E09093F50392
:101BE0008093F4031092F6030E94A400813089F5DB
:101BF0000E94A40081112DC0412C512C3201D0E053
:101C0000E091C805F091C90590858091F703891787
:101C100008F066C00E94A400082FD330B1F00E94E3
:101C2000A400182FD33021F40E94A400181311C06F
:101C3000013009F04BC011110CC0440C551C661C3E
:101C4000771C689440F8DF5FDBCF0E94A400081780
:101C500031F38091AE03823608F482C0E091AC0388
:101C6000F091AD0382819381C397859708F078C086
:101C7000848195814A97439708F072C020EB31E048
:101C800040E155E060EB71E08CE20E947F07882321
:101C900009F466C080E38093A8038091BC0590910D
:101CA000BD05A091BE05B091BF058093A40390939C
:101CB000A503A093A603B093A70382E090E29093BC
:101CC000A3038093A20388E090E087CE0111C1CFE7
:101CD000113009F0BECF440C551C661C771CB3CFE5
:101CE0008D2F90E09093BA058093B9054092BC0582
:101CF0005092BD056092BE057092BF05242D30E064
:101D0000852DC093BB05D432D8F43093B60520930B
:101D1000B50590E09093B4058093B30560FE03C0D1
:101D200088E88093BB058185928583379A4028F4A3
:101D30008091BB0581608093BB058FE090E022CF4E
:101D400057FE03C098E89093BB053093B6052093E7
:101D5000B5058F7790E09093B4058093B305E3CFFA
:101D60008091AE038C33E1F5E091AC03F091AD03CB
:101D700082819381865891098D35910588F58481FA
:101D80009581CE978C9760F526E232E04CE256E0E2
:101D900064EF71E08CE10E947F07882309F1E091F4
:101DA000AC03F091AD03EA58FF4F80819181079712
:101DB0000897B0F48091BC059091BD05A091BE0537
:101DC000B091BF058093A4039093A503A093A603AD
:101DD000B093A7038CE18093A80385E090E0FDCD4C
:101DE0004091AE03E091AC03F091AD038281938109
:101DF000423289F49C01285031092730310558F4CA
:101E0000DF01AE5BBF4F2D913C9128503109273047
:101E1000310508F45AC08D5791098735910508F4AA
:101E200064C0E091AC03F091AD038281938183544F
:101E300091098F9780F48091AE03843009F08CC0B3
:101E4000848195818197489730F48681978108979E
:101E5000089708F4AFC0E091C805F091C9058085E6
:101E6000823209F0B9C0E091AC03F091AD038281F8
:101E700093810497059708F0AFC0848195810B97F3
:101E80000A9708F0A9C02CE033E04CE157E064E089
:101E900071E08FE00E947F07882309F49DC0809144
:101EA000BC059091BD05A091BE05B091BF05809382
:101EB000A4039093A503A093A603B093A7038FE078
:101EC0008093A80382E090E088CD1092A803C0928E
:101ED000A403D092A503E092A603F092A70381E0A9
:101EE0008093BB0584E090E08CCD443208F499CF18
:101EF00084819581CE978C9708F093CF2EE032E0C5
:101F00004AE256E06EE072E080E10E947F0788239B
:101F100009F487CFE091AC03F091AD03EA5BFF4F8A
:101F2000808191810897079708F07BCF8091BC054D
:101F30009091BD05A091BE05B091BF058093A4030B
:101F40009093A503A093A603B093A70380E1809389
:101F5000A80384E090E041CD843408F47CCF8481F0
:101F60009581825491098F9708F075CF20E332E074
:101F700040E956E060E372E080E20E947F07882338
:101F800009F469CF8091BC059091BD05A091BE0573
:101F9000B091BF058093A4039093A503A093A603DB
:101FA000B093A70380E28093A8033092A10320920C
:101FB000A0030DC01092A803C092A403D092A50361
:101FC000E092A603F092A70381E08093BB053092D4
:101FD000B2052092B1054DCC1091AE03163008F435
:101FE000E7C0E091AC03F091AD03329625EC3DE9FA
:101FF0004CE151E8D3E00AE08481958161917191CF
:10200000089F5001099FB00C1124DB01AA0FBB1FD0
:10201000AA0FBB1FAA0FBB1FAA16BB0688F1069FFB
:10202000D001079FB00D112463E0880F991F6A95B6
:10203000E1F7BB24B394A817B90710F482E0B82ED7
:1020400063E971E080E091E00E9472119B01AC01B4
:102050002B25DF5F1D13D0CF2093A4033093A5035E
:102060004093A6035093A70380E28093A8031092A5
:10207000A1031092A0031092B2051092B105F9CB02
:10208000B12CDECF8F3D20E2920727EFA207B105EA
:1020900009F408C1873D9842A74FB10509F050CC1B
:1020A0008DE090E001C18F3A20E5920727EFA2076B
:1020B000B10509F408C188F48F3B20E4920727EFAB
:1020C000A207B10509F4CAC0873B9844A74FB105E0
:1020D00009F036CC89E090E0E7C08F3920E692071E
:1020E00027EFA207B10509F4E5C087399846A74F45
:1020F000B10509F025CC8FE090E0D6C08F3420EBFD
:10210000920727EFA207B10509F4E3C058F58F360F
:1021100020E9920727EFA207B10509F4D1C088F49E
:102120008F3720E8920727EFA207B10509F485C091
:1021300087379848A74FB10509F002CC8BE090E0B3
:10214000B3C08F3520EA920727EFA207B10509F443
:10215000AEC08735984AA74FB10509F0F1CB8EE0A4
:1021600090E0A2C08F3220ED920727EFA207B105C1
:1021700079F098F58F3320EC920727EFA207B1058D
:1021800009F47EC08733984CA74FB10509F0D8CB2E
:1021900080919C0390919D03A0919E03B0919F0319
:1021A0008093980390939903A0939A03B0939B0311
:1021B0008091A204833011F41092A2040E94F802CC
:1021C00080E090E0892B09F4E9CA0E949A038823F1
:1021D00009F4E0CA0E940000DDCA873128EE9207A8
:1021E00027EFA207B105A1F28F3020EF920727EF6A
:1021F000A207B10569F28F31904EA74FB10509F0E2
:102200009FCB83E090E050C080919603909197031C
:10221000892B09F4BDCF8091000190910101843692
:10222000910509F4B5CF05969093010180930001C3
:10223000809395040E94D101ABCF80919603909139
:102240009703892B09F4A4CF80910001909101019B
:102250008530910509F49CCF0597E6CF80919603D0
:1022600090919703892B09F493CF8FE493E00E9418
:10227000530810929703109296030E944401DACFFC
:102280008091960390919703019709F481CF80E69E
:1022900093E00E94530881E090E09093970380932D
:1022A0009603AFCF90E080E00E94610871CF81E09B
:1022B00090E0FACF86E090E0F7CF84E090E0F4CFB2
:1022C00085E090E0F1CF82E090E0EECF87E090E013
:1022D000EBCF88E090E0E8CF8CE090E0E5CF8AE0BB
:1022E00090E0E2CFDB018F939F930E94A411BF91F6
:1022F000AF91A29F800D911DA39F900DB29F900D55
:1023000011240895A1E21A2EAA1BBB1BFD010DC0CA
:10231000AA1FBB1FEE1FFF1FA217B307E407F50795
:1023200020F0A21BB30BE40BF50B661F771F881F71
:10233000991F1A9469F760957095809590959B0107
:10234000AC01BD01CF0108950E94AF11A59F900D72
:10235000B49F900DA49F800D911D11240895A29FFC
:10236000B001B39FC001A39F700D811D1124911D69
:10237000B29F700D811D1124911D0895AA1BBB1BD6
:1023800051E107C0AA1FBB1FA617B70710F0A61B75
:10239000B70B881F991F5A95A9F780959095BC0196
:1023A000CD01089597FB072E16F4009407D077FD12
:1023B00009D00E94BE1107FC05D03EF4909581958E
:1023C0009F4F0895709561957F4F0895EE0FFF1F01
:1023D0000590F491E02D09940E94AF11B7FF089584
:1023E000821B930B089581E090E0F8940C94F8110F
:0423F000F894FFCF8F
:1023F4003200000000001509150915095E075A0787
:102404005707000000001407D006CE065E075A07DF
:102414002D037A0400000000D00330035D031D0483
:102424008E036C0380030D0A0053657474696E6730
:1024340020636F6C6F723A20524544005365747484
:10244400696E6720636F6C6F723A20475245454E40
:102454000053657474696E6720636F6C6F723A2001
:10246400424C55450053657474696E6720636F6C04
:102474006F723A2057484954450053657474696E25
:102484006720636F6C6F723A204441524B5F4F5226
:10249400414E47450053657474696E6720636F6CE1
:1024A4006F723A20434841525452455553450053A4
:1024B400657474696E6720636F6C6F723A2044416F
:1024C400524B5F424C55450053657474696E6720E6
:1024D400636F6C6F723A204F52414E47450053650B
:1024E4007474696E6720636F6C6F723A20524F592F
:1024F400414C5F424C55450053657474696E6720C6
:10250400636F6C6F723A204441524B5F56494F4C93
:1025140045540053657474696E6720636F6C6F7201
:102524003A20474F4C44454E5F524F440053657424
:1025340074696E6720636F6C6F723A204C49474828
:10254400545F5345415F475245454E00536574748B
:10255400696E6720636F6C6F723A20505552504C0D
:10256400450053657474696E6720636F6C6F723ACB
:102574002059454C4C4F570053657474696E67205D
:10258400636F6C6F723A205445414C005365747408
:10259400696E6720636F6C6F723A204D4147454EF8
:1025A4005441005468652066756E6374696F6E20CB
:1025B4006465636F64652826726573756C7473292A
:1025C4002920697320646570726563617465642091
:1025D400616E64206D6179206E6F7420776F726B09
:1025E40020617320657870656374656421204A7581
:1025F400737420757365206465636F64652829208E
:10260400776974686F7574206120706172616D659B
:1026140074657220616E64204972526563656976DF
:1026240065722E6465636F646564495244617461C4
:102634002E3C6669656C646E616D653E202E0054A7
:1026440075726E696E67204C4544206F66662E0075
:102654005475726E696E67204C4544206F6E2E006F
:08266400554E4B4E4F574E003E
:00000001FF
